:100000000C942A000C9447000C9447000C94470071
:100010000C9447000C9447000C9447000C94AF00DC
:100020000C9447000C9447000C9447000C94470034
:100030000C9447000C9447000C9447000C94470024
:100040000C9447000C9447000C9447000C94470014
:100050000C94470011241FBECFE5D8E0DEBFCDBF12
:1000600010E0A0E6B0E0E6ECF1E002C005900D92F1
:10007000AC36B107D9F720E0ACE6B0E001C01D9284
:10008000A937B207E1F70E9466000C94E1000C94D6
:1000900000008EB588608EBD8EB584608EBD89E00F
:1000A0009DE39BBD8ABD89B7806189BF08958FEFAD
:1000B00084BB85BB0895E82FF0E0EF59FF4F8081A6
:1000C00085BB089580916F0085BB08950E9449000B
:1000D0000E94570078948FEF87BB12BA87EF809306
:1000E000600010926C00C9E08091600087FD2CC018
:1000F000809160008A3044F5E0916000F0E0EF59B3
:10010000FF4F808185BB80916E00813079F40E9421
:100110006200C09A2FEF81E19AE721508040904021
:10012000E1F700C00000C09810926E00809BDCCF09
:1001300080916C00882359F080916D008F5F8093CF
:100140006D008099FECFD0CF0E946200DCCFC093BB
:10015000600080916C008F5F80936C00F2CF1F92E3
:100160001FB61F9211248F9380916C00882321F178
:1001700080916D00811113C080916E0081110FC0BC
:10018000809160008150809360008091600087FFC3
:1001900006C081E080936E0089E0809360008091CA
:1001A0006D0080916D0082303CF010926D001092D5
:1001B0006E0089E0809360008F911F901FBE1F909A
:0601C0001895F894FFCF32
:0C01C600F77E306D79335B5F707F7B004B
:00000001FF
